{
  "contractName": "Voting",
  "abi": [
    {
      "inputs": [],
      "payable": false,
      "stateMutability": "nonpayable",
      "type": "constructor"
    },
    {
      "anonymous": false,
      "inputs": [
        {
          "indexed": false,
          "internalType": "uint256",
          "name": "candidateID",
          "type": "uint256"
        }
      ],
      "name": "AddedCandidate",
      "type": "event"
    },
    {
      "constant": true,
      "inputs": [
        {
          "internalType": "uint256",
          "name": "",
          "type": "uint256"
        }
      ],
      "name": "candidates",
      "outputs": [
        {
          "internalType": "bytes32",
          "name": "name",
          "type": "bytes32"
        },
        {
          "internalType": "bytes32",
          "name": "party",
          "type": "bytes32"
        },
        {
          "internalType": "bool",
          "name": "doesExist",
          "type": "bool"
        }
      ],
      "payable": false,
      "stateMutability": "view",
      "type": "function"
    },
    {
      "constant": true,
      "inputs": [],
      "name": "numCandidates",
      "outputs": [
        {
          "internalType": "uint256",
          "name": "",
          "type": "uint256"
        }
      ],
      "payable": false,
      "stateMutability": "view",
      "type": "function"
    },
    {
      "constant": true,
      "inputs": [],
      "name": "numVoters",
      "outputs": [
        {
          "internalType": "uint256",
          "name": "",
          "type": "uint256"
        }
      ],
      "payable": false,
      "stateMutability": "view",
      "type": "function"
    },
    {
      "constant": true,
      "inputs": [],
      "name": "owner",
      "outputs": [
        {
          "internalType": "address",
          "name": "",
          "type": "address"
        }
      ],
      "payable": false,
      "stateMutability": "view",
      "type": "function"
    },
    {
      "constant": true,
      "inputs": [
        {
          "internalType": "uint256",
          "name": "",
          "type": "uint256"
        }
      ],
      "name": "voters",
      "outputs": [
        {
          "internalType": "bytes32",
          "name": "uid",
          "type": "bytes32"
        },
        {
          "internalType": "uint256",
          "name": "candidateIDVote",
          "type": "uint256"
        }
      ],
      "payable": false,
      "stateMutability": "view",
      "type": "function"
    },
    {
      "constant": false,
      "inputs": [
        {
          "internalType": "bytes32",
          "name": "name",
          "type": "bytes32"
        },
        {
          "internalType": "bytes32",
          "name": "party",
          "type": "bytes32"
        }
      ],
      "name": "addCandidate",
      "outputs": [],
      "payable": false,
      "stateMutability": "nonpayable",
      "type": "function"
    },
    {
      "constant": false,
      "inputs": [
        {
          "internalType": "bytes32",
          "name": "uid",
          "type": "bytes32"
        },
        {
          "internalType": "uint256",
          "name": "candidateID",
          "type": "uint256"
        }
      ],
      "name": "vote",
      "outputs": [],
      "payable": false,
      "stateMutability": "nonpayable",
      "type": "function"
    },
    {
      "constant": true,
      "inputs": [
        {
          "internalType": "uint256",
          "name": "candidateID",
          "type": "uint256"
        }
      ],
      "name": "totalVotes",
      "outputs": [
        {
          "internalType": "uint256",
          "name": "",
          "type": "uint256"
        }
      ],
      "payable": false,
      "stateMutability": "view",
      "type": "function"
    },
    {
      "constant": true,
      "inputs": [],
      "name": "getNumOfCandidates",
      "outputs": [
        {
          "internalType": "uint256",
          "name": "",
          "type": "uint256"
        }
      ],
      "payable": false,
      "stateMutability": "view",
      "type": "function"
    },
    {
      "constant": true,
      "inputs": [],
      "name": "getNumOfVoters",
      "outputs": [
        {
          "internalType": "uint256",
          "name": "",
          "type": "uint256"
        }
      ],
      "payable": false,
      "stateMutability": "view",
      "type": "function"
    },
    {
      "constant": true,
      "inputs": [
        {
          "internalType": "uint256",
          "name": "candidateID",
          "type": "uint256"
        }
      ],
      "name": "getCandidate",
      "outputs": [
        {
          "internalType": "uint256",
          "name": "",
          "type": "uint256"
        },
        {
          "internalType": "bytes32",
          "name": "",
          "type": "bytes32"
        },
        {
          "internalType": "bytes32",
          "name": "",
          "type": "bytes32"
        }
      ],
      "payable": false,
      "stateMutability": "view",
      "type": "function"
    }
  ],
  "bytecode": "0x608060405234801561001057600080fd5b50336000806101000a81548173ffffffffffffffffffffffffffffffffffffffff021916908373ffffffffffffffffffffffffffffffffffffffff16021790555061067d806100606000396000f3fe608060405234801561001057600080fd5b50600436106100a95760003560e01c806365fc783c1161007157806365fc783c146101d05780638da5cb5b146101ee5780639ef1204c14610238578063a1adbb2514610270578063da58c7d9146102a8578063e8685ba1146102f1576100a9565b806319e6e158146100ae5780633477ee2e146100f057806335b8e820146101445780634cbe32b8146101945780635216509a146101b2575b600080fd5b6100da600480360360208110156100c457600080fd5b810190808035906020019092919050505061030f565b6040518082815260200191505060405180910390f35b61011c6004803603602081101561010657600080fd5b8101908080359060200190929190505050610364565b6040518084815260200183815260200182151515158152602001935050505060405180910390f35b6101706004803603602081101561015a57600080fd5b810190808035906020019092919050505061039b565b60405180848152602001838152602001828152602001935050505060405180910390f35b61019c6103dc565b6040518082815260200191505060405180910390f35b6101ba6103e2565b6040518082815260200191505060405180910390f35b6101d86103e8565b6040518082815260200191505060405180910390f35b6101f66103f2565b604051808273ffffffffffffffffffffffffffffffffffffffff1673ffffffffffffffffffffffffffffffffffffffff16815260200191505060405180910390f35b61026e6004803603604081101561024e57600080fd5b810190808035906020019092919080359060200190929190505050610417565b005b6102a66004803603604081101561028657600080fd5b81019080803590602001909291908035906020019092919050505061049a565b005b6102d4600480360360208110156102be57600080fd5b81019080803590602001909291905050506105f8565b604051808381526020018281526020019250505060405180910390f35b6102f961061c565b6040518082815260200191505060405180910390f35b6000806000905060008090505b60025481101561035a57836004600083815260200190815260200160002060010154141561034d5781806001019250505b808060010191505061031c565b5080915050919050565b60036020528060005260406000206000915090508060000154908060010154908060020160009054906101000a900460ff16905083565b600080600083600360008681526020019081526020016000206000015460036000878152602001908152602001600020600101549250925092509193909250565b60025481565b60015481565b6000600254905090565b6000809054906101000a900473ffffffffffffffffffffffffffffffffffffffff1681565b6003600082815260200190815260200160002060020160009054906101000a900460ff161561049657600060026000815480929190600101919050559050604051806040016040528084815260200183815250600460008381526020019081526020016000206000820151816000015560208201518160010155905050505b5050565b6000809054906101000a900473ffffffffffffffffffffffffffffffffffffffff1673ffffffffffffffffffffffffffffffffffffffff163373ffffffffffffffffffffffffffffffffffffffff161461053f576040517f08c379a00000000000000000000000000000000000000000000000000000000081526004018080602001828103825260228152602001806106276022913960400191505060405180910390fd5b60006001600081548092919060010191905055905060405180606001604052808481526020018381526020016001151581525060036000838152602001908152602001600020600082015181600001556020820151816001015560408201518160020160006101000a81548160ff0219169083151502179055509050507fec542c373a064661ffef02d633752debf28f3e6c9f253680822d9ccf8b47aec6816040518082815260200191505060405180910390a1505050565b60046020528060005260406000206000915090508060000154908060010154905082565b600060015490509056fe4f6e6c79206f776e65722063616e2063616c6c20746869732066756e6374696f6e2ea265627a7a7231582007709daddd56ec96a01d631113b9ab7680e07c800bbf543fee15a301e21363f364736f6c63430005100032",
  "source": "pragma solidity ^0.5.16;\r\n\r\ncontract Voting {\r\n    // Event emitted when a candidate is added\r\n    event AddedCandidate(uint candidateID);\r\n\r\n    // State variables\r\n    address public owner;\r\n    uint public numCandidates; // Declare public state variables to access them directly\r\n    uint public numVoters;\r\n\r\n    // Structs\r\n    struct Voter {\r\n        bytes32 uid;\r\n        uint candidateIDVote;\r\n    }\r\n\r\n    struct Candidate {\r\n        bytes32 name;\r\n        bytes32 party;\r\n        bool doesExist;\r\n    }\r\n\r\n    // Mappings\r\n    mapping (uint => Candidate) public candidates;\r\n    mapping (uint => Voter) public voters;\r\n\r\n    // Constructor\r\n    constructor() public {\r\n        owner = msg.sender;\r\n    }\r\n\r\n    // Modifier to restrict access to the owner\r\n    modifier onlyOwner {\r\n        require(msg.sender == owner, \"Only owner can call this function.\");\r\n        _;\r\n    }\r\n\r\n    // Function to add a candidate\r\n    function addCandidate(bytes32 name, bytes32 party) public onlyOwner {\r\n        uint candidateID = numCandidates++;\r\n        candidates[candidateID] = Candidate(name, party, true);\r\n        emit AddedCandidate(candidateID);\r\n    }\r\n\r\n    // Function to allow voting\r\n    function vote(bytes32 uid, uint candidateID) public {\r\n        if (candidates[candidateID].doesExist) {\r\n            uint voterID = numVoters++;\r\n            voters[voterID] = Voter(uid, candidateID);\r\n        }\r\n    }\r\n\r\n    // Function to get total votes for a candidate\r\n    function totalVotes(uint candidateID) public view returns (uint) {\r\n        uint numOfVotes = 0;\r\n        for (uint i = 0; i < numVoters; i++) {\r\n            if (voters[i].candidateIDVote == candidateID) {\r\n                numOfVotes++;\r\n            }\r\n        }\r\n        return numOfVotes;\r\n    }\r\n\r\n    // Function to get number of candidates\r\n    function getNumOfCandidates() public view returns (uint) {\r\n        return numCandidates;\r\n    }\r\n\r\n    // Function to get number of voters\r\n    function getNumOfVoters() public view returns (uint) {\r\n        return numVoters;\r\n    }\r\n\r\n    // Function to get candidate information\r\n    function getCandidate(uint candidateID) public view returns (uint, bytes32, bytes32) {\r\n        return (candidateID, candidates[candidateID].name, candidates[candidateID].party);\r\n    }\r\n}\r\n",
  "sourcePath": "C:\\Users\\njoro\\eth-voting-dapp\\contracts\\Voting.sol",
  "compiler": {
    "name": "solc",
    "version": "0.5.16+commit.9c3226ce.Emscripten.clang"
  },
  "schemaVersion": "3.4.16",
  "updatedAt": "2024-05-11T21:12:45.077Z",
  "networkType": "ethereum",
  "devdoc": {
    "methods": {}
  },
  "userdoc": {
    "methods": {}
  }
}